{
  "_format": "hh-sol-artifact-1",
  "contractName": "Keyvault",
  "sourceName": "contracts/Keyvault.sol",
  "abi": [
    {
      "inputs": [],
      "name": "MAX_BATCH_SIZE",
      "outputs": [
        {
          "internalType": "uint256",
          "name": "",
          "type": "uint256"
        }
      ],
      "stateMutability": "view",
      "type": "function"
    },
    {
      "inputs": [
        {
          "internalType": "address",
          "name": "account",
          "type": "address"
        },
        {
          "internalType": "uint256",
          "name": "startFrom",
          "type": "uint256"
        },
        {
          "internalType": "uint256",
          "name": "limit",
          "type": "uint256"
        }
      ],
      "name": "getEntries",
      "outputs": [
        {
          "internalType": "string[]",
          "name": "",
          "type": "string[]"
        }
      ],
      "stateMutability": "view",
      "type": "function"
    },
    {
      "inputs": [
        {
          "internalType": "address",
          "name": "account",
          "type": "address"
        },
        {
          "internalType": "uint256",
          "name": "n",
          "type": "uint256"
        }
      ],
      "name": "getEntry",
      "outputs": [
        {
          "internalType": "string",
          "name": "",
          "type": "string"
        }
      ],
      "stateMutability": "view",
      "type": "function"
    },
    {
      "inputs": [
        {
          "internalType": "address",
          "name": "",
          "type": "address"
        }
      ],
      "name": "numEntries",
      "outputs": [
        {
          "internalType": "uint256",
          "name": "",
          "type": "uint256"
        }
      ],
      "stateMutability": "view",
      "type": "function"
    },
    {
      "inputs": [
        {
          "internalType": "address",
          "name": "",
          "type": "address"
        }
      ],
      "name": "pubKey",
      "outputs": [
        {
          "internalType": "string",
          "name": "",
          "type": "string"
        }
      ],
      "stateMutability": "view",
      "type": "function"
    },
    {
      "inputs": [],
      "name": "resetEntries",
      "outputs": [],
      "stateMutability": "nonpayable",
      "type": "function"
    },
    {
      "inputs": [
        {
          "internalType": "string[]",
          "name": "_entries",
          "type": "string[]"
        }
      ],
      "name": "storeEntries",
      "outputs": [],
      "stateMutability": "nonpayable",
      "type": "function"
    },
    {
      "inputs": [
        {
          "internalType": "string",
          "name": "entry",
          "type": "string"
        }
      ],
      "name": "storeEntry",
      "outputs": [],
      "stateMutability": "nonpayable",
      "type": "function"
    },
    {
      "inputs": [
        {
          "internalType": "string",
          "name": "pubkey",
          "type": "string"
        }
      ],
      "name": "storePubkey",
      "outputs": [],
      "stateMutability": "nonpayable",
      "type": "function"
    }
  ],
  "bytecode": "0x608060405234801561001057600080fd5b50610c1f806100206000396000f3fe608060405234801561001057600080fd5b50600436106100935760003560e01c8063ac8ac51511610066578063ac8ac51514610119578063b8a740e01461012c578063cf1ce44e1461013f578063cfdbf2541461015f578063f58281581461016757600080fd5b80631f8e8f5e1461009857806358a63763146100c157806365fbc7f0146100ef57806396cf314f14610106575b600080fd5b6100ab6100a6366004610747565b61017a565b6040516100b891906107a8565b60405180910390f35b6100e16100cf366004610747565b60006020819052908152604090205481565b6040519081526020016100b8565b61010433600090815260208190526040812055565b005b610104610114366004610872565b610214565b610104610127366004610872565b6102c3565b6100ab61013a3660046108af565b6102e0565b61015261014d3660046108d9565b6103dd565b6040516100b8919061090c565b6100e1601481565b610104610175366004610970565b6105b7565b6002602052600090815260409020805461019390610a33565b80601f01602080910402602001604051908101604052809291908181526020018280546101bf90610a33565b801561020c5780601f106101e15761010080835404028352916020019161020c565b820191906000526020600020905b8154815290600101906020018083116101ef57829003601f168201915b505050505081565b33600090815260208181526040808320546001909252909120548110156102755733600090815260016020526040902080548391908390811061025957610259610a6d565b90600052602060002001908161026f9190610ad4565b5061029f565b33600090815260016020818152604083208054928301815583529091200161029d8382610ad4565b505b3360009081526020819052604081208054916102ba83610baa565b91905055505050565b3360009081526002602052604090206102dc8282610ad4565b5050565b6001600160a01b038216600090815260208190526040902054606090821061031757506040805160208101909152600081526103d7565b6001600160a01b038316600090815260016020526040902080548390811061034157610341610a6d565b90600052602060002001805461035690610a33565b80601f016020809104026020016040519081016040528092919081815260200182805461038290610a33565b80156103cf5780601f106103a4576101008083540402835291602001916103cf565b820191906000526020600020905b8154815290600101906020018083116103b257829003601f168201915b505050505090505b92915050565b6001600160a01b03831660009081526020819052604090205460609080841061043457604080516000808252602082019092529061042b565b60608152602001906001900390816104165790505b509150506105b0565b6000816104418587610bc3565b11610455576104508486610bc3565b610457565b815b905060006104658683610bd6565b67ffffffffffffffff81111561047d5761047d6107bb565b6040519080825280602002602001820160405280156104b057816020015b606081526020019060019003908161049b5790505b509050855b828110156105aa576001600160a01b03881660009081526001602052604090208054829081106104e7576104e7610a6d565b9060005260206000200180546104fc90610a33565b80601f016020809104026020016040519081016040528092919081815260200182805461052890610a33565b80156105755780601f1061054a57610100808354040283529160200191610575565b820191906000526020600020905b81548152906001019060200180831161055857829003601f168201915b50505050508288836105879190610bd6565b8151811061059757610597610a6d565b60209081029190910101526001016104b5565b50925050505b9392505050565b60148151111561060d5760405162461bcd60e51b815260206004820152601860248201527f42617463682073697a652065786365656473206c696d69740000000000000000604482015260640160405180910390fd5b3360009081526020818152604080832054600190925282205490915b835181101561071657818310156106a65783818151811061064c5761064c610a6d565b602002602001015160016000336001600160a01b03166001600160a01b03168152602001908152602001600020848154811061068a5761068a610a6d565b9060005260206000200190816106a09190610ad4565b50610701565b33600090815260016020526040902084518590839081106106c9576106c9610a6d565b602090810291909101810151825460018101845560009384529190922001906106f29082610ad4565b50816106fd81610baa565b9250505b8261070b81610baa565b935050600101610629565b50503360009081526020819052604090205550565b80356001600160a01b038116811461074257600080fd5b919050565b60006020828403121561075957600080fd5b6105b08261072b565b6000815180845260005b818110156107885760208185018101518683018201520161076c565b506000602082860101526020601f19601f83011685010191505092915050565b6020815260006105b06020830184610762565b634e487b7160e01b600052604160045260246000fd5b604051601f8201601f1916810167ffffffffffffffff811182821017156107fa576107fa6107bb565b604052919050565b600082601f83011261081357600080fd5b813567ffffffffffffffff81111561082d5761082d6107bb565b610840601f8201601f19166020016107d1565b81815284602083860101111561085557600080fd5b816020850160208301376000918101602001919091529392505050565b60006020828403121561088457600080fd5b813567ffffffffffffffff81111561089b57600080fd5b6108a784828501610802565b949350505050565b600080604083850312156108c257600080fd5b6108cb8361072b565b946020939093013593505050565b6000806000606084860312156108ee57600080fd5b6108f78461072b565b95602085013595506040909401359392505050565b600060208083016020845280855180835260408601915060408160051b87010192506020870160005b8281101561096357603f19888603018452610951858351610762565b94509285019290850190600101610935565b5092979650505050505050565b6000602080838503121561098357600080fd5b823567ffffffffffffffff8082111561099b57600080fd5b818501915085601f8301126109af57600080fd5b8135818111156109c1576109c16107bb565b8060051b6109d08582016107d1565b91825283810185019185810190898411156109ea57600080fd5b86860192505b83831015610a2657823585811115610a085760008081fd5b610a168b89838a0101610802565b83525091860191908601906109f0565b9998505050505050505050565b600181811c90821680610a4757607f821691505b602082108103610a6757634e487b7160e01b600052602260045260246000fd5b50919050565b634e487b7160e01b600052603260045260246000fd5b601f821115610acf576000816000526020600020601f850160051c81016020861015610aac5750805b601f850160051c820191505b81811015610acb57828155600101610ab8565b5050505b505050565b815167ffffffffffffffff811115610aee57610aee6107bb565b610b0281610afc8454610a33565b84610a83565b602080601f831160018114610b375760008415610b1f5750858301515b600019600386901b1c1916600185901b178555610acb565b600085815260208120601f198616915b82811015610b6657888601518255948401946001909101908401610b47565b5085821015610b845787850151600019600388901b60f8161c191681555b5050505050600190811b01905550565b634e487b7160e01b600052601160045260246000fd5b600060018201610bbc57610bbc610b94565b5060010190565b808201808211156103d7576103d7610b94565b818103818111156103d7576103d7610b9456fea26469706673582212202342441688c5853fb2b4fd5a68b0f44e87adc18b69df302715901f078eeb907a64736f6c63430008180033",
  "linkReferences": {},
  "deployedLinkReferences": {}
}